:020000040800F2
:1000000000500020C55400087D2E0008852E0008F1
:10001000892E00088D2E0008912E00080000000097
:10002000000000000000000000000000952E000805
:10003000992E0008000000009D2E0008A12E000847
:100040000D5500080D5500080D5500080D55000808
:100050000D5500080D5500080D5500080D550008F8
:100060000D5500080D5500080D550008A52E000877
:100070000D5500080D550008B12E0008BD2E0008D2
:100080000D5500080D5500080D5500080D550008C8
:100090000D5500080D5500080D550008C92E000823
:1000A0000D550008D12E00080D5500080D5500080B
:1000B0000D5500080D5500080D5500080D55000898
:1000C0000D5500080D5500080D5500080D55000888
:1000D0000D550008DD2E00080D5500080D550008CF
:1000E0000D5500080D5500080D55000800000000D2
:1000F0000000000000000000000000000000000000
:0C01000000000000000000005FF808F1A3
:1001100081F0004102E000BF83F0004330B54FEAB8
:1001200041044FEA430594EA050F08BF90EA020F25
:100130001FBF54EA000C55EA020C7FEA645C7FEAB8
:10014000655C00F0E2804FEA5454D4EB5555B8BFDB
:100150006D420CDD2C4480EA020281EA030382EA4C
:10016000000083EA010180EA020281EA0303362DDE
:1001700088BF30BD11F0004F4FEA01314FF4801CB1
:100180004CEA113102D0404261EB410113F0004FC3
:100190004FEA03334CEA133302D0524263EB43037A
:1001A00094EA050F00F0A780A4F10104D5F1200E18
:1001B0000DDB02FA0EFC22FA05F2801841F1000173
:1001C00003FA0EF2801843FA05F359410EE0A5F147
:1001D00020050EF1200E012A03FA0EFC28BF4CF078
:1001E000020C43FA05F3C01851EBE37101F000452E
:1001F00007D54FF0000EDCF1000C7EEB00006EEB3B
:100200000101B1F5801F1BD3B1F5001F0CD34908C4
:100210005FEA30004FEA3C0C04F101044FEA44521B
:1002200012F5800F80F09A80BCF1004F08BF5FEAA2
:10023000500C50F1000041EB045141EA050130BD82
:100240005FEA4C0C404141EB0101013C28BFB1F594
:10025000801FE9D291F0000F04BF01460020B1FADF
:1002600081F308BF2033A3F10B03B3F120020CDAB2
:100270000C3208DD02F1140CC2F10C0201FA0CF090
:1002800021FA02F10CE002F11402D8BFC2F1200CF5
:1002900001FA02F120FA0CFCDCBF41EA0C019040AB
:1002A000E41AA2BF01EB0451294330BD6FEA0404F4
:1002B0001F3C1CDA0C340EDC04F11404C4F12002DF
:1002C00020FA04F001FA02F340EA030021FA04F3F1
:1002D00045EA030130BDC4F10C04C4F1200220FA48
:1002E00002F001FA04F340EA0300294630BD21FA86
:1002F00004F0294630BD94F0000F83F4801306BF4C
:1003000081F480110134013D4EE77FEA645C18BF3F
:100310007FEA655C29D094EA050F08BF90EA020FD6
:1003200005D054EA000C04BF1946104630BD91EACE
:10033000030F1EBF0021002030BD5FEA545C05D1D1
:100340004000494128BF41F0004130BD14F5800410
:100350003CBF01F5801130BD01F0004545F0FE4184
:1003600041F470014FF0000030BD7FEA645C1ABFB9
:10037000194610467FEA655C1CBF0B46024650EAF0
:10038000013406BF52EA033591EA030F41F400211C
:1003900030BD00BF90F0000F04BF0021704730B5A2
:1003A0004FF4806404F132044FF000054FF0000177
:1003B00050E700BF90F0000F04BF0021704730B538
:1003C0004FF4806404F1320410F0004548BF40420D
:1003D0004FF000013EE700BF42004FEAE2014FEA62
:1003E00031014FEA02701FBF12F07F4393F07F4F3D
:1003F00081F06051704732F07F4208BF704793F040
:100400007F4F04BF41F40021704730B54FF4607452
:1004100001F0004521F000411CE700BF50EA010255
:1004200008BF704730B54FF000050AE050EA0102FE
:1004300008BF704730B511F0004502D5404261EB6E
:1004400041014FF4806404F132045FEA915C3FF4AF
:10045000D8AE4FF003025FEADC0C18BF03325FEA4C
:10046000DC0C18BF033202EBDC02C2F1200300FAFD
:1004700003FC20FA02F001FA03FE40EA0E0021FA22
:1004800002F11444BDE600BF70B54FF0FF0C4CF410
:10049000E06C1CEA11541DBF1CEA135594EA0C0FC2
:1004A00095EA0C0F00F0DEF82C4481EA030621EAFD
:1004B0004C5123EA4C5350EA013518BF52EA033538
:1004C00041F4801143F4801338D0A0FB02CE4FF0EA
:1004D0000005E1FB02E506F00042E0FB03E54FF01A
:1004E0000006E1FB03569CF0000F18BF4EF0010E12
:1004F000A4F1FF04B6F5007F64F5407404D25FEA0E
:100500004E0E6D4146EB060642EAC62141EA5551C0
:100510004FEAC52040EA5E504FEACE2EB4F1FD0C02
:1005200088BFBCF5E06F1ED8BEF1004F08BF5FEA80
:10053000500E50F1000041EB045170BD06F0004632
:1005400046EA010140EA020081EA0301B4EB5C04DF
:10055000C2BFD4EB0C0541EA045170BD41F48011D7
:100560004FF0000E013C00F3AB8014F1360FDEBFFC
:10057000002001F0004170BDC4F10004203C35DAD8
:100580000C341BDC04F11404C4F1200500FA05F35B
:1005900020FA04F001FA05F240EA020001F00042FC
:1005A00021F0004110EBD37021FA04F642EB060172
:1005B0005EEA430E08BF20EAD37070BDC4F10C049C
:1005C000C4F1200500FA04F320FA05F001FA04F260
:1005D00040EA020001F0004110EBD37041F100014C
:1005E0005EEA430E08BF20EAD37070BDC4F1200557
:1005F00000FA05F24EEA020E20FA04F301FA05F2BF
:1006000043EA020321FA04F001F0004121FA04F266
:1006100020EA020000EBD3705EEA430E08BF20EA36
:10062000D37070BD94F0000F0FD101F00046400070
:1006300041EB010111F4801F08BF013CF7D041EAF2
:10064000060195F0000F18BF704703F000465200F6
:1006500043EB030313F4801F08BF013DF7D043EAC7
:100660000603704794EA0C0F0CEA135518BF95EA7D
:100670000C0F0CD050EA410618BF52EA4306D1D104
:1006800081EA030101F000414FF0000070BD50EA23
:10069000410606BF1046194652EA430619D094EAAD
:1006A0000C0F02D150EA013613D195EA0C0F05D197
:1006B00052EA03361CBF104619460AD181EA0301EB
:1006C00001F0004141F0FE4141F470014FF00000A3
:1006D00070BD41F0FE4141F4780170BD70B54FF03E
:1006E000FF0C4CF4E06C1CEA11541DBF1CEA1355BE
:1006F00094EA0C0F95EA0C0F00F0A7F8A4EB0504A0
:1007000081EA030E52EA03354FEA013100F0888096
:100710004FEA03334FF0805545EA131343EA12635F
:100720004FEA022245EA111545EA10654FEA002614
:100730000EF000419D4208BF964244F1FD0404F5CD
:10074000407402D25B084FEA3202B61A65EB030529
:100750005B084FEA32024FF480104FF4002CB6EBE6
:10076000020E75EB030E22BFB61A754640EA0C0066
:100770005B084FEA3202B6EB020E75EB030E22BFA6
:10078000B61A754640EA5C005B084FEA3202B6EBE7
:10079000020E75EB030E22BFB61A754640EA9C00A6
:1007A0005B084FEA3202B6EB020E75EB030E22BF76
:1007B000B61A754640EADC0055EA060E18D04FEA34
:1007C000051545EA16754FEA06164FEAC30343EAD4
:1007D00052734FEAC2025FEA1C1CC0D111F4801FA1
:1007E0000BD141EA00014FF000004FF0004CB6E79A
:1007F00011F4801F04BF01430020B4F1FD0C88BF39
:10080000BCF5E06F3FF6AFAEB5EB030C04BFB6EB43
:10081000020C5FEA500C50F1000041EB045170BD36
:100820000EF0004E4EEA113114EB5C04C2BFD4EB63
:100830000C0541EA045170BD41F480114FF0000EE7
:10084000013C90E645EA060E8DE60CEA135594EA63
:100850000C0F08BF95EA0C0F3FF43BAF94EA0C0F66
:100860000AD150EA01347FF434AF95EA0C0F7FF4DB
:1008700025AF104619462CE795EA0C0F06D152EA2F
:1008800003353FF4FDAE1046194622E750EA410613
:1008900018BF52EA43067FF4C5AE50EA41047FF424
:1008A0000DAF52EA43057FF4EBAE12E74FF0FF3C89
:1008B00006E000BF4FF0010C02E000BF4FF0010C5A
:1008C0004DF804CD4FEA410C7FEA6C5C4FEA430CD3
:1008D00018BF7FEA6C5C1BD001B050EA410C0CBF22
:1008E00052EA430C91EA030F02BF90EA020F002084
:1008F000704710F1000F91EA030F58BF994208BFEB
:1009000090422CBFD8176FEAE37040F001007047A7
:100910004FEA410C7FEA6C5C02D150EA013C07D1FE
:100920004FEA430C7FEA6C5CD6D152EA033CD3D049
:100930005DF8040B704700BF8446104662468C4643
:100940001946634600E000BF01B5FFF7B7FF002876
:1009500048BF10F1000F01BD4DF808EDFFF7F4FF9F
:100960000CBF012000205DF808FB00BF4DF808ED2A
:10097000FFF7EAFF34BF012000205DF808FB00BF4D
:100980004DF808EDFFF7E0FF94BF012000205DF86F
:1009900008FB00BF4DF808EDFFF7CEFF94BF012024
:1009A00000205DF808FB00BF4DF808EDFFF7C4FF1D
:1009B00034BF012000205DF808FB00BF4A0011D2BF
:1009C00012F5001211D20DD56FF47873B3EB6252A9
:1009D0000ED44FEAC12343F0004343EA505323FAB5
:1009E00002F070474FF00000704750EA013002D12A
:1009F0004FF0FF3070474FF0000070470348044B42
:100A0000834202D0034B03B1184770476C000020AB
:100A10006C000020000000000548064B1B1AD90F8F
:100A200001EBA301491002D0034B03B118477047F3
:100A30006C0000206C0000200000000010B5064C87
:100A4000237843B9FFF7DAFF044B13B10448AFF33F
:100A500000800123237010BD700000200000000002
:100A60006855000808B5054B1BB105490548AFF3AB
:100A70000080BDE80840FFF7CFBF00BF00000000C6
:100A80007400002068550008002309204FF48031CD
:100A900010B594B00122CDE90A0102244FF480314F
:100AA000CDE90633CDE90833CDE902330C93059344
:100AB00001930D930F9304934FF4E0130AA8CDE92B
:100AC00010240E921291139302F096FD08B172B6A3
:100AD000FEE703460F22CDE9064309934FF48063F6
:100AE000214605A80893059202F074FF08B172B67A
:100AF000FEE74FF4004301A80194039303F070F85C
:100B000008B172B6FEE703F035F814B010BD00BFAF
:100B10002DE9F04F93B002F039FDFFF7B5FF00F07B
:100B2000FBFB00F0FFFC00F077FD00F0A9FD00F0FA
:100B300039FD00F0D9FD00F0DFFE00F079FC00F097
:100B40001BFD01F095FD0421C54803F087FE04213B
:100B5000C44803F083FE0021C34803F099FD04213B
:100B6000C14803F095FD0821BF4803F091FD0C2119
:100B7000BD4803F08DFDBD4802F068FC642002F022
:100B800029FD0122BA49B94802F0ACFB1022B9494B
:100B9000B94804F0F9F9B94803F0E2FC4FF0000954
:100BA000DFF8DCB2DFF8CC82DFF8D8A2AC4B1D68EE
:100BB000AC4B6F6A1C68B14B626A1E68B24B029202
:100BC0001868726A02EB0040FFF7E4FBAE4B024686
:100BD000C6F82490C3F800900B4699A1D1E9000112
:100BE000FFF77CFD024638B216460F46FFF7E2FBE0
:100BF00095A3D3E90023FFF747FC32463B46FFF7B6
:100C000043FCCBE90001BDF90800FFF7D3FB90A33B
:100C1000D3E90023FFF738FC3B463246FFF734FCAC
:100C2000C5F82490CBE90201102295499248C4F8F6
:100C3000249004F06DF9954B1D7825B1944B1C78E8
:100C4000002C40F0C18193490022D1E906670023BE
:100C500030463946FFF78AFE002840F097814FF46E
:100C6000E1518148324604683B46A1637AA1D1E94B
:100C70000001FFF751FAFFF7A1FE606386490022E9
:100C8000D1E90667002330463946FFF76FFE00289A
:100C900040F068814FF4E15132463B4621646EA139
:100CA000D1E90001FFF738FAFFF788FEE063002D75
:100CB00040F0688114210020784A01F04FFAD8E909
:100CC000000100220023FFF751FE1421002840F00C
:100CD00032810846724A01F041FAD8E90001FFF773
:100CE0006DFE0C230246142123200093032301F000
:100CF000EDF914213C206B4A01F030FADBE90001E8
:100D000000220023FFF732FE002840F00481142166
:100D10005020634A01F022FADBE90001FFF74EFEA2
:100D20000C23024614215F200093032301F0CEF927
:100D30001E2100205C4A01F011FAD8E902010022CC
:100D40000023FFF713FE002840F0D5801E21142059
:100D5000534A01F003FAD8E90201FFF72FFE0C23F2
:100D600002461E2123200093032301F0AFF91E2128
:100D70003C204E4A01F0F2F9DBE902010022002397
:100D8000FFF7F4FD002840F0A6801E215020444AC1
:100D900001F0E4F9DBE90201FFF710FE0C23642700
:100DA0000C2602461E215F200093032301F08EF9DA
:100DB000282100203E4A01F0D1F928214E203D4A49
:100DC00001F0CCF9282138463B4A01F0C7F93B4CE9
:100DD000DAF800204120A4FB023228210223520924
:100DE000009601F073F9DAF800100223A4FB010267
:100DF000520907FB121258202821009601F066F9CB
:100E0000DAF80030A4FB0324640907FB1433092B30
:100E100040F2A08032210020294A01F09FF93221BE
:100E2000002D53D00846274A01F098F901F09CF8AC
:100E3000254803F01FFB642002F0CCFBB6E600BFA0
:100E400000000000882A9141155001155001453FCE
:100E500015500115500145BF000000000020BC40A6
:100E6000D40100208C010020440100200801002052
:100E7000B4000020A0000020F80200202002002082
:100E800090000020B0000020B80000206100002089
:100E90006000002030000020000000208055000885
:100EA000885500088C550008905500089455000896
:100EB00098550008A0550008A45500081F85EB515F
:100EC000A8550008B05500083801002008463A4AE5
:100ED00001F044F9AAE71E215020384A01F03EF9FA
:100EE000DBF808300A93DBF80C3003F100430B9376
:100EF000DDE90A0150E71E211420304A01F02EF9E5
:100F0000D8F808300893D8F80C3003F1004309935F
:100F1000DDE9080121E714215020284A01F01EF9DB
:100F2000DBF800300693DBF8043003F1004307934D
:100F3000DDE90601F2E60846204A01F00FF9D8F88B
:100F400000300493D8F8043003F100430593DDE941
:100F50000401C4E60223002228215220009601F059
:100F6000B5F857E74FF4E1533046E363394610A331
:100F7000D3E90023FFF7D2F8FFF720FD2064002D0E
:100F80003FF498AE0E4B1C78254693E64FF4E153A0
:100F90000C4A304614683946636305A3D3E900233D
:100FA000FFF7BCF8FFF70AFDA06367E6AFF3008028
:100FB000000000000020BC40B45500088455000823
:100FC0006000002044010020DBE90023D8E9000193
:100FD000FFF7A2F802460B46934DCDE90223D5E96F
:100FE0000223FFF751FAD5E90623FFF797F8D5E971
:100FF0000867CDE90C01DDE9020132463B46FFF707
:101000008BF8D5E90023FFF73FFA02460B46DDE9EE
:101010000C01FFF783F8D5E90A23CDE90C01DDE9DE
:101020000201FFF77BF832463B46CDE90E01304620
:101030003946FFF773F802460B46DDE90E01FFF76C
:101040006BF8D5E90423FFF71FFA02460B46DDE9EA
:101050000C01FFF763F8DDE90223C5E90A67C5E97A
:101060000823DBE90223CDE90201D8E90201FFF7F9
:1010700053F802460B466D4DCDE90C23D5E902230A
:10108000FFF702FAD5E90623FFF748F8CDE90E018C
:10109000D5E90867DDE90C0132463B46FFF73CF82D
:1010A000D5E90023FFF7F0F902460B46DDE90E0112
:1010B000FFF734F8D5E90A23CDE90E01DDE90C018B
:1010C000FFF72CF832463B46CDE910013046394651
:1010D000FFF724F802460B46DDE91001FFF71CF884
:1010E000D5E90423FFF7D0F902460B46DDE90E01EE
:1010F000FFF714F8DDE90C23C5E90A67C5E9082301
:1011000045A3D3E9002306460F46DDE90201FFF7B8
:101110002DFC002859D142A3D3E90023DDE90201C7
:10112000FFF742FCDDE9022320B13DA3D3E9002310
:10113000CDE902233C493046C1E9062336A3D3E971
:1011400000233946FFF712FC00283AD134A3D3E933
:10115000002330463946FFF727FC10B130A7D7E906
:101160000067DDE90201314B0022C3E90667002375
:10117000FFF7FCFB00283DD1DDE902234FF4E151EC
:101180002B480568A96326A1D1E90001FEF7C4FF39
:10119000FFF714FC68630022002330463946FFF74E
:1011A000E5FBC0B94FF4E151324629643B461CA12E
:1011B000D1E90001FEF7B0FFFFF700FCE863254628
:1011C00078E515A7D7E90067CBE713A3D3E9002398
:1011D000CDE90223AEE74FF4E1533046EB633946E5
:1011E0000FA3D3E90023FEF799FFFFF7E7FB28647D
:1011F00025465FE54FF4E153DDE902010C4A15682D
:101200006B6307A3D3E90023FEF788FFFFF7D6FB44
:10121000A863C0E7AFF30080000000000020BCC05E
:10122000000000000020BC40300000200000002032
:1012300044010020044B834200D07047034A1368E6
:1012400001331360704700BF20020020B800002067
:10125000034B834200D070471022024903F094BE32
:10126000F8020020A000002070B5134C134E208817
:10127000FFF7A0F80EA3D3E90023FFF705F9FFF766
:101280009DFB40F2564C0346634594BF4FF0000C63
:101290004FF0010C0A4D2146336085F800C0012251
:1012A000BDE87040074802F01DB800BFAFF30080F2
:1012B000FFFFFFFFFF5BEC3FB4000020B000002009
:1012C0006100002008010020642038B502F082F996
:1012D00020210C4802F09CFE012800D038BD1021CE
:1012E000084802F09FFE00200021074A074D1378AE
:1012F000074C83F00103C5E90601C4E90601137038
:1013000038BD00BF00080140600000203000002010
:101310000000002072B6FEE72DE9F0474FF0000A0A
:1013200088B0CDE904AACDE906AA3C4B4FF4005899
:101330009A694FF0030942F010029A619A69384D98
:1013400002F010020092009A9A69364E42F0200292
:101350009A619A69284602F020020192019A9A69DC
:1013600048F2100142F004029A619A69012402F0E5
:1013700004020292029A9A69032742F008029A61D3
:101380009B69524603F008030393039B02F046FE59
:1013900052463046382102F041FECDE9048941F63B
:1013A0000C184FF0030904A91F4802F015FD284648
:1013B00004A9CDE9048902F00FFD48F21003284684
:1013C00004A90493CDE90544079702F005FD202206
:1013D000164B284604A9CDE90423CDF818A002F045
:1013E000FBFC4FF605420323304604A9CDE9042354
:1013F00002F0F2FC3823304604A90493CDE90544F9
:10140000079702F0E9FC52460A21172002F0A4FFD8
:10141000172002F0DFFF08B0BDE8F087001002409F
:1014200000080140000C01400010014000001110B4
:10143000002301224FF4602130B51248124C85B0D0
:10144000CDE901330460009302730375C161436009
:101450008360026101F06AFD60B909240125072358
:1014600069460848CDE90045029301F05FFE20B9C6
:1014700005B030BDFFF74EFFEFE7FFF74BFF05B0BC
:1014800030BD00BF080100200024014070B50024D9
:10149000204B026886B09A42CDE90244CDE904446B
:1014A00001D006B070BD03F56C439A6902A942F4FD
:1014B00000729A619A69054602F400720092009ADD
:1014C0009A69154E42F008029A619B69022203F064
:1014D00008030193032301981048CDE9022302F089
:1014E0007BFC0F4980224FF48073C6E900144FF44F
:1014F00080613046C6E90323B460B461F461716170
:1015000002F0A6FD18B92E62756206B070BDFFF735
:1015100001FFF8E700240140C0000020000C01405A
:10152000080002400022134B00B5596983B041F016
:10153000010159615B69114603F0010301930B201E
:10154000019B02F009FF0B2002F044FF00220E2055
:10155000114602F001FF0E2002F03CFF00220F2096
:10156000114602F0F9FE0F2003B05DF804EB02F023
:1015700031BF00BF0010024008B5032240F27123C2
:101580000648074942600160836002F049FF00B9E4
:1015900008BDBDE80840FFF7BDBE00BF3801002010
:1015A0000030004000234FF6FF71802210B518482C
:1015B000184C86B0C0E90133CDE9033304600293CF
:1015C0000093C1608261036143610593019302F05E
:1015D00059FF90B94FF480530D4802A9029303F0CC
:1015E0009BFA88B90022002369460948CDE9002307
:1015F00003F0EAFB20B906B010BDFFF78BFEE9E768
:10160000FFF788FE06B010BDFFF784FEEAE700BFD3
:1016100020020020002C014030B58DB02022002196
:1016200004A803F099FF00231448802101224FF001
:1016300080454FF6FF74C0E90133009303610193C5
:101640000323816103A90560C46005920992039395
:1016500003F076F850B90022002369460748CDE927
:10166000002303F0B1FB20B90DB030BDFFF752FEEF
:10167000F1E7FFF74FFE0DB030BD00BFD4010020F1
:1016800030B58DB02022002104A803F065FF0023AF
:10169000032101224FF6FF75802411480093C0E911
:1016A0000133036101930F4B039103A9C56084616A
:1016B00003600592099203F043F850B90022002319
:1016C00069460748CDE9002303F07EFB20B90DB041
:1016D00030BDFFF71FFEF1E7FFF71CFE0DB030BD78
:1016E0008C01002000040040002341F61F418022AD
:1016F000D0B53B483B4C90B020602046C4E9013354
:10170000CDE90933CDE90B33CDE90D3302930893CD
:10171000E160A2612361039302F04CFF002832D103
:10172000002200232F4802A9CDE9022303F04CFB3D
:10173000002837D10022602600272A4808A9CDE9D1
:1017400008670A920C9203F0EBF840BB042225488C
:1017500008A903F0E5F8F8B90822224808A903F01F
:10176000DFF8B0B90C221F4808A903F0D9F868B90E
:1017700000231B4A2168CDE904339142CDE90633A9
:1017800013D010B0D0BDFFF7C5FDC9E7FFF7C2FD0C
:10179000EEE7FFF7BFFDE5E7FFF7BCFDDCE7FFF78E
:1017A000B9FDD3E7FFF7B6FDC4E74FF47076022723
:1017B000012403F1804303F504339A690A4842F097
:1017C00008029A619B6904A903F008030193CDE91B
:1017D0000467019B079402F0FFFA10B0D0BD00BF70
:1017E0000008004044010020000C01400E4B02683C
:1017F0009A4200D07047002203F56443996900B50E
:1018000041F4006199619B6983B003F40063019323
:1018100019201146019B02F09FFD192003B05DF8CD
:1018200004EB02F0D7BD00BF002C0140002330B50F
:10183000026889B0B2F1804FCDE90433CDE90633B7
:1018400004D0204B9A421FD009B030BD012403259B
:1018500003F1804303F50433DA691B482243DA615C
:10186000DA6904A922400092009A9A6942F00402BF
:101870009A619B69049503F004030193019B06940C
:1018800002F0AAFA09B030BDC025012403F50333E4
:10189000DA690D4842F00202DA61DA6904A902F05D
:1018A00002020292029A9A6942F004029A619B69CA
:1018B000049503F004030393039B069402F08CFA4F
:1018C00009B030BD0004004000080140094B026827
:1018D0009A4200D0704703F50233DA6982B042F0D1
:1018E0000402DA61DB6903F004030193019B02B097
:1018F000704700BF0008004000234FF4E1310C2284
:1019000010B50948094CC0E90113C0E9033304606C
:1019100042618361C36103F08DFA00B910BDBDE877
:101920001040FFF7F7BC00BFF8020020003801406C
:1019300070B50024364B026886B09A42CDE9024465
:10194000CDE9044401D006B070BD03F558439A694F
:10195000054642F480429A619A692E4802F4804218
:101960000092009A9A692C4E42F004029A619B6997
:101970004FF4007203F00403019301990321022341
:10198000059102A9CDE9022302F026FA4FF4806204
:101990000023204802A9CDE90223049402F01CFA96
:1019A00080224FF440531D493046C6E90014B4600C
:1019B00034617461B461F260F36102F049FB00BB11
:1019C0001022174C0023802162604FF44052C4E97A
:1019D000023123616361A361124B2046AE637562DD
:1019E0002360E26102F034FB70B900222520114629
:1019F0006C63656202F0B0FC252002F0EBFC06B0DF
:101A000070BDFFF787FCDBE7FFF784FCEDE700BF65
:101A10000038014000080140B00200205800024098
:101A20006802002044000240002B00F09C822DE957
:101A3000F04F203AB84CD5B2B84F05EB450C03EB4C
:101A4000040807EB05170A460126B54D04EB8C0484
:101A500008EB8C083CE110F0800F40F063813F2AD6
:101A600013D84FEAD20ECEF1070E5FFA8EFE05EBC9
:101A7000C00A02F007091AF80EB0C9F1070906FA00
:101A800009F92BEA09090AF80E9002F1010E5FFA32
:101A90008EFEAEEB010A4FEA4C099A455FFA89F9CE
:101AA00000F0888119F0800F40F09181BEF13F0F66
:101AB00013D84FEADE09C9F107095FFA89F905EB86
:101AC000C00A0EF0070E1AF809B0CEF1070E06FA9A
:101AD0000EFE2BEA0E0E0AF809E002F1020E5FFA82
:101AE0008EFEAEEB010A4FEA8C099A455FFA89F93E
:101AF00000F0608119F0800F40F08281BEF13F0F4D
:101B000013D84FEADE09C9F107095FFA89F90EF027
:101B1000070E05EBC00A1AF809B0CEF1070E06FA57
:101B20000EFE2BEA0E0E0AF809E002F1030E5FFA30
:101B30008EFEAEEB010A4FEACC099A455FFA89F9AD
:101B400000F0388119F0800F40F07181BEF13F0F35
:101B500013D84FEADE09C9F107095FFA89F90EF0D7
:101B6000070E05EBC00A1AF809B0CEF1070E06FA07
:101B70000EFE2BEA0E0E0AF809E002F1040E5FFADF
:101B80008EFEAEEB010A4FEA0C199A455FFA89F90D
:101B900000F0108119F0800F40F06081BEF13F0F1E
:101BA00013D84FEADE09C9F107095FFA89F90EF087
:101BB000070E05EBC00A1AF809B0CEF1070E06FAB7
:101BC0000EFE2BEA0E0E0AF809E002F1050E5FFA8E
:101BD0008EFEAEEB010A4FEA4C199A455FFA89F97D
:101BE00000F0E88019F0800F40F04F81BEF13F0F08
:101BF00013D84FEADE09C9F107095FFA89F905EB45
:101C0000C00A0EF0070E1AF809B0CEF1070E06FA58
:101C10000EFE2BEA0E0E0AF809E002F1060E5FFA3C
:101C20008EFEAEEB010A4FEA8C199A455FFA89F9EC
:101C300000F0C08019F0800F40F040814FEACC1CCA
:101C4000BEF13F0F5FFA8CFC13D84FEADE09C9F1F1
:101C500007095FFA89F90EF0070E05EBC00A1AF8BA
:101C600009B0CEF1070E06FA0EFE2BEA0E0E0AF8A8
:101C700009E002F1070E5FFA8EFEAEEB010999450D
:101C800000F09880BCF1000F40F03381BEF13F0FAF
:101C900013D84FEADE09C9F107095FFA89F90EF096
:101CA000070C05EBC00A1AF809E0CCF1070C06FA9C
:101CB0000CFC2EEA0C0C0AF809C00832D2B2A2EBD6
:101CC000010C9C4576D00134A04507F1010779D07D
:101CD0000C2B79D097F800C01CF0800F3FF4BBAEFE
:101CE00010F0800F40F01E813F2A3FF6CEAE4FEA43
:101CF000D209C9F107095FFA89F905EBC00A02F0B8
:101D0000070E1AF809B0CEF1070E06FA0EFE4EEADB
:101D10000B0E0AF809E0B8E6A85B0008B855000801
:101D20003C03002002F1010E5FFA8EFEAEEB010EC5
:101D30004FEA4C099E455FFA89F93BD019F0800FB4
:101D400040F0F98002F1020E5FFA8EFEAEEB010E5A
:101D500073452FD002F1030E5FFA8EFEAEEB010E3B
:101D60009E4527D002F1040E5FFA8EFEAEEB010E07
:101D70009E451FD002F1050E5FFA8EFEAEEB010EFE
:101D80004FEA4C199E455FFA89F913D019F0800F7C
:101D900040F0DB8002F1060E5FFA8EFEAEEB010E24
:101DA0009E4507D002F1070C5FFA8CFCACEB010CEE
:101DB0009C4582D101340130A0450A46C0B207F1EA
:101DC000010785D1BDE8F08F94F800C084E7BEF12B
:101DD0003F0F3FF682AE4FEADE09C9F107095FFA0D
:101DE00089F905EBC00A0EF0070E1AF809B0CEF11A
:101DF000070E06FA0EFE4EEA0B0E0AF809E06CE634
:101E0000BEF13F0F3FF691AE4FEADE09C9F1070977
:101E10005FFA89F90EF0070E05EBC00A1AF809B04F
:101E2000CEF1070E06FA0EFE4EEA0B0E7BE6BEF171
:101E30003F0F3FF6A2AE4FEADE09C9F107095FFA8C
:101E400089F90EF0070E05EBC00A1AF809B0CEF1B9
:101E5000070E06FA0EFE4EEA0B0E8CE6BEF13F0FA1
:101E60003FF6B3AE4FEADE09C9F107095FFA89F917
:101E70000EF0070E05EBC00A1AF809B0CEF1070EF6
:101E800006FA0EFE4EEA0B0E9DE6BEF13F0F3FF640
:101E9000C4AE4FEADE09C9F107095FFA89F905EB1B
:101EA000C00A0EF0070E1AF809B0CEF1070E06FAB6
:101EB0000EFE4EEA0B0E0AF809E0AEE64FEACC1C25
:101EC000BEF13F0F5FFA8CFC3FF6D3AE4FEADE095E
:101ED000C9F107095FFA89F90EF0070E05EBC00A90
:101EE0001AF809B0CEF1070E06FA0EFE4EEA0B0EF6
:101EF000BDE6BEF13F0F3FF6E0AE4FEADE09C9F1A5
:101F000007095FFA89F90EF0070C05EBC00E1EF801
:101F100009A0CCF1070C06FA0CFC4CEA0A0C0EF8EE
:101F200009C0CAE602F1010E5FFA8EFEAEEB010EA9
:101F30009E453FF43FAF02F1020E5FFA8EFEAEEB1C
:101F4000010E9E457FF406AF34E74FEA8C1C5FFA22
:101F50008CFE02F1060C5FFA8CFCACEB010C9C458C
:101F60007FF420AF26E770472DE9F84F544BDFF898
:101F700054819946544E03F1080AC3F1B00B0BEBA0
:101F8000090400224FF4004140460825E4B202F063
:101F900045F800222021304602F040F821064CBFCF
:101FA000012200221021304602F038F8013D0122C2
:101FB0002021304602F032F8640015F0FF05E4B24B
:101FC000E7D101224FF40041404602F027F80022F9
:101FD0004FF40041404602F021F80824002220215D
:101FE000304602F01BF800221021304602F016F8AD
:101FF00001222021304602F011F8631E13F0FF0485
:10200000ECD14FF400414046012202F007F822468D
:102010004FF40041404602F001F808241025002248
:102020002021304601F0FAFF2A064CBF012200228F
:102030001021304601F0F2FF013C01222021304600
:1020400001F0ECFF6B0014F0FF04DDB2E7D10122D8
:102050004FF40041404601F0E1FF002701224FF418
:1020600000414046082419F8375001F0D7FF0022FC
:102070002021304601F0D2FF2B064CBF0122002266
:102080001021304601F0CAFF013C012220213046D8
:1020900001F0C4FF6D0014F0FF04EDB2E7D101229E
:1020A0004FF400411744404601F0B8FF802FD5D1CE
:1020B00009F10109CA457FF462AFBDE8F88F00BF9E
:1020C0003C03002000080140000C01402DE9F84FBE
:1020D0009A469DF82830BAF1000F34D04FF000092D
:1020E000804693464D46AAF102041B4FE4B25E08B7
:1020F000FF2C2AD0204601220138C0B202EB820216
:10210000FF284FEA4202F7D1BBFBF2F2A7FB02C065
:10211000C00800EB8000A2EB4000C2B22DB90AF16A
:10212000FF3CCC4501DD90B1012530324046D2B2B2
:10213000FFF77AFC09F10109B044013CCA455FFA96
:1021400088F8E4B2D4D1BDE8F88F5A46DEE7202201
:102150004046FFF769FCEDE7CDCCCCCC1378002BE3
:1021600000F084822DE9F04FDFF810A37A280F46A3
:102170009346014685B00AF10C0902D900211037B7
:10218000FFB23A2F40F2B48100220821BC4BC3E9D0
:102190000022C3E90222C3E90422C3E90622C3E9FB
:1021A0000822C3E90A22C3E90C22C3E90E2243F83C
:1021B000312003EBC100013180294260F7D1FFF7E4
:1021C000D3FE00200821074684469BF800603B466A
:1021D000203EF6B206EB46060AEB86050124CDE961
:1021E000011BDFF89CE209EB8606CDF80C9024E198
:1021F0001CF0800F40F046813F2B11D8D908C1F167
:102200000701C9B20EEBCC0903F0070819F801B0B9
:10221000C8F1070804FA08F82BEA080B09F801B01E
:10222000591CC9B2A1EB00094FEA4208B9F10C0FE1
:102230005FFA88F800F0498118F0800F40F05E8165
:102240003F2913D84FEAD108C8F107085FFA88F888
:102250000EEBCC0B01F007011BF80890C1F1070150
:1022600004FA01F129EA01090BF80890991CC9B296
:10227000A1EB00094FEA8208B9F10C0F5FFA88F868
:1022800000F0238118F0800F40F050813F2913D8CF
:102290004FEAD108C8F107085FFA88F80EEBCC0BBB
:1022A00001F007011BF80890C1F1070104FA01F1E0
:1022B00029EA01090BF80890D91CC9B2A1EB000961
:1022C0004FEAC208B9F10C0F5FFA88F800F0FD8000
:1022D00018F0800F40F042813F2913D84FEAD1080F
:1022E000C8F107085FFA88F80EEBCC0B01F0070184
:1022F0001BF80890C1F1070104FA01F129EA01096C
:102300000BF80890191DC9B2A1EB00094FEA021899
:10231000B9F10C0F5FFA88F800F0D78018F0800F41
:1023200040F034813F2913D84FEAD108C8F107089B
:102330005FFA88F80EEBCC0B01F007011BF8089050
:10234000C1F1070104FA01F129EA01090BF808902B
:10235000591DC9B2A1EB00094FEA4218B9F10C0F9F
:102360005FFA88F800F0B18018F0800F40F0268105
:102370003F2913D84FEAD108C8F107085FFA88F857
:102380000EEBCC0B01F007011BF80890C1F107011F
:1023900004FA01F129EA01090BF80890991DC9B264
:1023A000A1EB00094FEA8218B9F10C0F5FFA88F827
:1023B00000F08B8018F0800F40F018813F294FEA21
:1023C000C21200F22E814FEAD108C8F107085FFA65
:1023D00088F80EEBCC0B5FFA82F901F00702C2F12C
:1023E00007021BF8081004FA02F221EA02010BF8B6
:1023F0000810DA1DD2B2111A0C2966D0B9F1000FFB
:1024000040F01B813F2A11D8D108C1F10701C9B2A0
:102410000EEBCC0902F0070219F80180C2F10702A5
:1024200004FA02F228EA020809F801800833DBB254
:102430001A1A0C2A49D0AE424ED015F8012B1106BB
:102440007FF5D6AE1CF0800F1CD13F2B3FF6E8AED7
:102450004FEAD308C8F107085FFA88F80EEBCC09F9
:1024600003F0070119F808B0C1F1070104FA01F1FE
:1024700041EA0B0109F80810D2E600BFA85B00088A
:102480003C030020591CC9B2091A0C291DD0991C03
:10249000C9B2091A0C2918D0D91CC9B2091A0C29B9
:1024A00013D0191DC9B2091A0C290ED0591DC9B271
:1024B000091A0C2909D09A1DD2B2121A0C2A04D07A
:1024C000DA1DD2B2121A0C2AB0D10CF1010CAE42B4
:1024D0003B465FFA8CFCB0D1DDE9011B1BF8013FE4
:1024E000DDF80C90002B00F0BE807A293FF646AE56
:1024F00001F108038C463846D9B266E63F293FF61B
:10250000B5AE4FEAD108C8F107085FFA88F80EEBBC
:10251000CC0901F0070119F808B0C1F1070104FA6C
:1025200001F141EA0B0109F808109FE63F293FF647
:10253000C3AE4FEAD108C8F107085FFA88F80EEB7E
:10254000CC0901F0070119F808B0C1F1070104FA3C
:1025500001F141EA0B0109F80810ADE63F293FF609
:10256000D1AE4FEAD108C8F107085FFA88F80EEB40
:10257000CC0901F0070119F808B0C1F1070104FA0C
:1025800001F141EA0B0109F80810BBE63F293FF6CB
:10259000DFAE4FEAD108C8F107085FFA88F80EEB02
:1025A000CC0901F0070119F808B0C1F1070104FADC
:1025B00001F141EA0B0109F80810C9E63F293FF68D
:1025C000EDAE4FEAD108C8F107085FFA88F80EEBC4
:1025D000CC0901F0070119F808B0C1F1070104FAAC
:1025E00001F141EA0B0109F80810D7E63F294FEA4B
:1025F000C21216D84FEAD108C8F107085FFA88F866
:102600005FFA82F901F007020EEBCC0111F808B075
:10261000C2F1070204FA02F242EA0B0201F80820B2
:10262000E7E6D1B2DA1DD2B2A2EB0008B8F10C0F86
:102630003FF44BAF00293FF4E5AE3F2A3FF6F6AE3C
:10264000D108C1F10701C9B20EEBCC0802F00702B4
:1026500018F80190C2F1070204FA02F242EA0902F4
:1026600008F80120E2E605B0BDE8F08F704700BF32
:1026700070B500220821CA4801F0D0FC642000F0A7
:10268000A9FF01220821C64801F0C8FC00224FF42E
:102690000041C44801F0C2FC0825AE24C04E00220F
:1026A0003046202101F0BAFC20064CBF0122002256
:1026B0001021304601F0B2FC013D012220213046BC
:1026C00001F0ACFC640015F0FF05E4B2E7D1012293
:1026D0004FF40041B34801F0A1FC00224FF4004147
:1026E000B04801F09BFC0825D524AD4E00222021E6
:1026F000304601F093FC21064CBF0122002210213C
:10270000304601F08BFC013D01222021304601F0D2
:1027100085FC640015F0FF05E4B2E7D101224FF417
:102720000041A04801F07AFC00224FF400419D488E
:1027300001F074FC08255024994E002220213046D7
:1027400001F06CFC22064CBF012200221021304611
:1027500001F064FC013D01222021304601F05EFCC5
:10276000640015F0FF05E4B2E7D101224FF4004107
:102770008C4801F053FC00224FF40041894801F0DD
:102780004DFC0825A824864E00222021304601F069
:1027900045FC23064CBF012200221021304601F0E7
:1027A0003DFC013D01222021304601F037FC640050
:1027B00015F0FF05E4B2E7D101224FF4004179485A
:1027C00001F02CFC00224FF40041764801F026FC79
:1027D00008253F24724E00223046202101F01EFCC5
:1027E00020064CBF012200221021304601F016FCC9
:1027F000013D01222021304601F010FC640015F05B
:10280000FF05E4B2E7D101224FF40041654801F031
:1028100005FC00224FF40041624801F0FFFB08254F
:10282000D3245F4E00222021304601F0F7FB210621
:102830004CBF012200221021304601F0EFFB013D88
:1028400001222021304601F0E9FB640015F0FF056C
:10285000E4B2E7D101224FF40041524801F0DEFB1F
:1028600000224FF400414F4801F0D8FB08244C4DA2
:1028700000222021284601F0D1FB00221021284609
:1028800001F0CCFB01222021284601F0C7FB631E8A
:1028900013F0FF04ECD14FF400410122414801F054
:1028A000BDFB22464FF400413E4801F0B7FB08252E
:1028B00040243B4E00222021304601F0AFFB22068F
:1028C0004CBF012200221021304601F0A7FB013D40
:1028D00001222021304601F0A1FB640015F0FF0524
:1028E000E4B2E7D101224FF400412E4801F096FBFB
:1028F00000224FF400412B4801F090FB08258D2465
:10290000274E00222021304601F088FB23064CBFD1
:10291000012200221021304601F080FB013D0122FE
:102920002021304601F07AFB640015F0FF05E4B287
:10293000E7D101224FF400411A4801F06FFB002259
:102940004FF40041174801F069FB08251424144E88
:1029500000223046202101F061FB20064CBF0122FD
:1029600000221021304601F059FB013D01222021B7
:10297000304601F053FB640015F0FF05E4B2E7D1E7
:1029800001224FF40041074801F048FB00224FF4B8
:102990000041044801F042FB08252024004E03E0DA
:1029A000000C01400008014000222021304601F0C7
:1029B00035FB21064CBF012200221021304601F0D8
:1029C0002DFB013D01222021304601F027FB640050
:1029D00015F0FF05E4B2E7D101224FF40041C948E8
:1029E00001F01CFB00224FF40041C64801F016FB29
:1029F00008250224C44E00222021304601F00EFB9F
:102A000022064CBF012200221021304601F006FBB5
:102A1000013D01222021304601F000FB640015F049
:102A2000FF05E4B2E7D101224FF40041B54801F0BF
:102A3000F5FA00224FF40041B24801F0EFFA082500
:102A4000A124B14E00222021304601F0E7FA2306EE
:102A50004CBF012200221021304601F0DFFA013D77
:102A600001222021304601F0D9FA640015F0FF055B
:102A7000E4B2E7D101224FF40041A24801F0CEFABE
:102A800000224FF400419F4801F0C8FA0825C024F5
:102A90009D4E00223046202101F0C0FA20064CBF96
:102AA000012200221021304601F0B8FA013D012236
:102AB0002021304601F0B2FA640015F0FF05E4B2BF
:102AC000E7D101224FF400418E4801F0A7FA00221D
:102AD0004FF400418B4801F0A1FA0825DA248A4E10
:102AE00000222021304601F099FA21064CBF012234
:102AF00000221021304601F091FA013D01222021EF
:102B0000304601F08BFA640015F0FF05E4B2E7D11E
:102B100001224FF400417B4801F080FA00224FF47B
:102B20000041784801F07AFA08251224764E0022F6
:102B30002021304601F072FA22064CBF0122002209
:102B40001021304601F06AFA013D01222021304671
:102B500001F064FA640015F0FF05E4B2E7D1012248
:102B60004FF40041674801F059FA00224FF4004148
:102B7000644801F053FA08258124634E0022202185
:102B8000304601F04BFA23064CBF012200221021EF
:102B9000304601F043FA013D01222021304601F088
:102BA0003DFA640015F0FF05E4B2E7D101224FF4CD
:102BB0000041544801F032FA00224FF400415148DC
:102BC00001F02CFA0825EF244F4E00223046202138
:102BD00001F024FA20064CBF0122002210213046C9
:102BE00001F01CFA013D01222021304601F016FAC5
:102BF000640015F0FF05E4B2E7D101224FF4004173
:102C0000404801F00BFA00224FF400413D4801F02A
:102C100005FA0825D9243C4E00222021304601F037
:102C2000FDF921064CBF012200221021304601F09F
:102C3000F5F9013D01222021304601F0EFF9640051
:102C400015F0FF05E4B2E7D101224FF400412D4811
:102C500001F0E4F900224FF400412A4801F0DEF9C6
:102C60000825F124284E00222021304601F0D6F913
:102C700022064CBF012200221021304601F0CEF97D
:102C8000013D01222021304601F0C8F9640015F011
:102C9000FF05E4B2E7D101224FF40041194801F0E9
:102CA000BDF900224FF40041164801F0B7F908259C
:102CB000DB24154E00222021304601F0AFF9230617
:102CC0004CBF012200221021304601F0A7F9013D3E
:102CD00001222021304601F0A1F9640015F0FF0522
:102CE000E4B2E7D101224FF40041064801F096F921
:102CF00000224FF40041034801F090F908253024E8
:102D0000014E03E000080140000C01400022304663
:102D1000202101F083F920064CBF0122002210215E
:102D2000304601F07BF9013D01222021304601F0BF
:102D300075F9640015F0FF05E4B2E7D101224FF404
:102D400000414B4801F06AF900224FF40041484825
:102D500001F064F90825A424464E002220213046C3
:102D600001F05CF921064CBF0122002210213046FF
:102D700001F054F9013D01222021304601F04EF9C5
:102D8000640015F0FF05E4B2E7D101224FF40041E1
:102D9000374801F043F900224FF40041344801F074
:102DA0003DF90825A624334E00222021304601F0AB
:102DB00035F922064CBF012200221021304601F0D5
:102DC0002DF9013D01222021304601F027F9640050
:102DD00015F0FF05E4B2E7D101224FF40041244889
:102DE00001F01CF900224FF40041214801F016F9CE
:102DF0000825AF241F4E00222021304601F00EF995
:102E000023064CBF012200221021304601F006F9B2
:102E1000013D01222021304601F000F9640015F047
:102E2000FF05E4B2E7D101224FF40041104801F060
:102E3000F5F800220821104BC3E90022C3E9022261
:102E4000C3E90422C3E90622C3E90822C3E90A222E
:102E5000C3E90C22C3E90E2243F8312003EBC10081
:102E6000013180294260F7D1BDE87040FFF77CB89E
:102E700000080140000C01403C03002008B500F0B0
:102E8000A1FEFEE7FEE700BFFEE700BFFEE700BFD2
:102E9000FEE700BF704700BF704700BF704700BF2C
:102EA00000F086BB014801F0B1B900BFC0000020AE
:102EB000014801F0ABB900BF68020020014801F0F1
:102EC000A5B900BFB0020020202001F0B5B800BFB6
:102ED000014801F0CFBE00BF20020020014802F0EF
:102EE000A3B900BFF80200200E4B82B09A690E49C8
:102EF00042F001029A619A6902F001020092009A7E
:102F0000DA6942F08052DA61DB6903F080530193A1
:102F1000019B4B6823F0E06343F000734B6002B009
:102F2000704700BF0010024000000140002800F080
:102F30008C8038B5836A0446002B6ED023689A686B
:102F4000D10748D4A26AD20605D5A36A43F010037C
:102F5000A362012038BDA26A6168E06922F4885248
:102F6000257B22F00202014342F00202A26241EA02
:102F70004502A168B1F5807F55D0A1F10100B0FAFA
:102F800080F094F814C04009BCF1010F4FEA002012
:102F90005ED05D6825F46945284358609D684148C6
:102FA00028401043986001294BD00020D96A21F4B1
:102FB00070010143D96299683B4B0B409A4261D042
:102FC000A36A23F0120343F01003A362E36A43F001
:102FD0000103E362BDE79A6822F001029A6000F003
:102FE000F3FA236805469A68D207ABD502E09A68DF
:102FF000D107A7D500F0E8FA401B02282368F6D9CC
:103000009A68D007F3D5A36A43F01003A362E36A7A
:1030100043F00103E362A36A97E7C36280F82430B8
:10302000FEF734FA8AE7207D012810D058681D4940
:1030300020F4694040F48070586098680140114362
:103040009960206901380005B0E701207047084603
:103050000DB3A56A45F02005A562E56A45F00105B6
:10306000E5625D68B1F5807F25F4694540EA0500B9
:1030700058609D680B4800EA050040EA020098602D
:1030800091D1DEE70020E062A36A23F0030343F05E
:103090000103A36238BDA569013D40EA453040F413
:1030A0000060DEE7FDF7E1FFFE0E1FFF436A9A6A4C
:1030B00012F0500F0FD19A6A196842F4007210B5DD
:1030C0009A628A6802F46022B2F5602F06D0184630
:1030D000FEF7CAF810BD1B6A1B6B18471A7B002A43
:1030E000F5D19A6A22F480729A629A6AD204EED476
:1030F0009A6A42F001029A62E9E700BF704700BF96
:1031000008B5406AFFF7FAFF08BD00BF704700BF6F
:10311000406A08B5836A43F040038362C36A43F0A0
:103120000403C362FFF7F2FF08BD00BF002330B500
:1031300083B0019390F82430012B69D0012380F8EB
:1031400024304B680246062B046832D90C2B03EB63
:1031500083034ED84FF01F0C0868256B233B00FA01
:1031600003FE0CFA03F325EA030343EA0E03236389
:10317000092830D94FF0070C8D6800EB4001E36857
:103180001E398D400CFA01F123EA0103A0F1100170
:103190002B430129E3602AD82D4B9C423BD00120D0
:1031A000936A43F020039362002382F8243003B033
:1031B00030BD4FF01F0C086803EB8303656B053BC4
:1031C00000FA03FE0CFA03F325EA030343EA0E03B5
:1031D00009286363CED807258968236900EB40007E
:1031E000814005FA00F023EA00030B43236100202D
:1031F000DAE74FF01F0C0868E56A413B00FA03FE6E
:103200000CFA03F325EA030343EA0E03E362AFE794
:10321000022003B030BDA3681B02E8D4A3681028C5
:1032200043F40003A360E2D10A4B0B491B68A1FBE6
:1032300003139B0C03EB83035B000193019B002BA7
:10324000D5D0019B013B0193019B002BF9D1CEE727
:10325000002401406800002083DE1B43002330B5BA
:10326000026883B001939368D90727D41B4B0446A7
:103270001B681B489168A0FB030341F001019B0CF4
:1032800091600193019B2BB1019B013B0193019B39
:10329000002BF9D100F098F9236805469B68DA07FE
:1032A0000CD400F091F9431B022B236803D99A68D0
:1032B00012F0010205D09B68DB07F2D5002003B0B5
:1032C00030BD0120A36A84F8242043F01003A362D8
:1032D000E36A0343E36203B030BD00BF680000202F
:1032E00083DE1B43F8B504463E4D00680F46A842F6
:1032F000164659D03C4B984256D094F82430012BB6
:103300005FD00123204684F82430FFF7A7FF05464D
:10331000002851D1A06A2168334B20F4706020F05E
:10332000010040F480709942A0624DD0A36A23F45A
:103330008013A3624B685A0505D5A36A23F4405352
:1033400043F48053A362A36A002013F4805318BF90
:10335000E36A84F8240018BF23F00603E3623346CF
:103360006FF00206206A3A46204F4C318762204FA8
:10337000C762204F076341F84C6C51F8446C46F427
:10338000807641F8446C00F095FE236828469A68E0
:1033900002F46022B2F5602F9A680CBF42F4A002DA
:1033A00042F480129A60F8BD0E4B5B6813F4702FE4
:1033B000A3D001252846F8BD002384F824302846F0
:1033C000F8BD02252846F8BDA3F580635A6812F4BB
:1033D000702FABD0A26A42F48012A2625B685B05D8
:1033E000B1D5AAE70024014000280140AD30000813
:1033F000013100081131000838B503689A68D40714
:1034000001D4002038BD04469A6822F001029A6077
:1034100000F0DAF8236805469B68D907F1D502E089
:103420009B68DB07EDD500F0CFF8431B022B236828
:10343000F6D99A68D207F3D50120A36A43F01003A6
:10344000A362E36A0343E36238BD00BF002370B5A3
:1034500082B0019390F82430012B5FD0012380F8D3
:1034600024300446FFF7C8FF054628B1002328464C
:1034700084F8243002B070BDA36A314A23F4885323
:1034800023F0020343F00203A3620220166800F057
:1034900029FCB6FBF0F676000196019B2BB1019B4F
:1034A000013B0193019B002BF9D12046FFF7D6FE8B
:1034B0002268936843F00803936000F085F823685E
:1034C00006469A6811070BD500F07EF8831B0A2B7D
:1034D000236802D99A68120724D49A681007F3D493
:1034E0009A6842F004029A6000F06EF8236806467B
:1034F0009B6859070BD500F067F8831B0A2B2368DC
:1035000002D99A6852070DD49B685B07F3D4A36A6B
:1035100023F0030343F00103A362A7E70225284633
:1035200002B070BD0125A36A284623F0120343F0C0
:103530001003A362002384F8243002B070BD00BFE2
:103540006800002038B54FF47A730D4A05461178AB
:103550000C4AB3FBF1F31268B2FBF3F000F048FF42
:1035600008B90F2D01D9012038BD0446024629466D
:103570004FF0FF3000F0F0FE034B20461D6038BDD9
:10358000620000206800002064000020074A08B59F
:103590001368032043F01003136000F0CBFE0120FA
:1035A000FFF7D0FFFFF7A0FC002008BD002002407D
:1035B000034A044B11681B780B441360704700BF2B
:1035C0003C07002062000020014B1868704700BFD4
:1035D0003C07002038B50446FFF7F6FF631C05469C
:1035E00002D0044B1B781C44FFF7EEFF401BA042A7
:1035F000FAD338BD62000020002800F0E4812DE9F4
:10360000F04103680446DD0782B035D599494A6820
:1036100002F00C02042A00F0ED804A6802F00C026D
:10362000082A00F0E3806368B3F5803F10D0002BD8
:1036300000F00A81B3F5A02F00F080818D4B1A684D
:1036400022F480321A601A6822F480221A6004E0A0
:10365000884A136843F480331360FFF7B5FF854E43
:10366000054605E0FFF7B0FF401B642800F2E88044
:1036700033689A03F6D523689F0728D57D4A516899
:1036800011F00C0F00F09680516801F00C01082930
:1036900000F08C802369002B00F016810122764B0C
:1036A000744E1A60FFF790FF054605E0FFF78CFFA8
:1036B000401B022800F2C48033689807F6D53368AF
:1036C000626923F0F80343EAC203336023681A07F0
:1036D00029D45D074BD5674BDA69D00000F18480AF
:1036E0000125DA6942F08052DA61DB6903F0805328
:1036F0000093009B614E3368D90540F19180E368E7
:10370000012B00F0F280002B00F0BE80052B594BFE
:103710001A6A00F0208122F001021A621A6A22F06D
:1037200004021A62E6E0A369002B4CD00122524B3E
:10373000504EC3F88024FFF747FF054604E0FFF72B
:1037400043FF401B02287BD8736A9B07F7D54C4B7D
:103750004C4A1B68A2FB03235B0A019300BF019B39
:103760005A1E0192002BF9D123685D07B3D4E36997
:10377000C3B1404D6A6802F00C02082A00F0CD8007
:103780000022022B3C4B1A6600F0ED80FFF71CFF75
:10379000044604E0FFF718FF001B022850D82B68EE
:1037A0009B01F7D4002002B0BDE8F0815268D60337
:1037B0003FF570AF2F4A1268950725D52269012A77
:1037C00022D00120EFE72C4A2A4EC2F88034FFF7BE
:1037D000FBFE054604E0FFF7F7FE401B02282FD84A
:1037E000736A9F07F7D4BFE7002583E74A68D003D1
:1037F0007FF519AF1F4A126891037FF53DAF6268EC
:10380000002A7FF439AFDCE71A4960690A6822F0C0
:10381000F80242EAC0020A601A077FF55AAF82E74F
:10382000336843F480733360FFF7CEFE0746336896
:10383000DA053FF564AFFFF7C7FEC01B6428F6D971
:10384000032002B0BDE8F0810A4D2B6823F48033D9
:103850002B602B6823F480232B60FFF7B5FE064610
:1038600004E0FFF7B1FE801B6428E9D82B689B03B6
:10387000F7D400E700100240000042420070004010
:1038800068000020D34D6210504E41F28838336AF0
:1038900023F001033362336A23F004033362FFF73A
:1038A00093FE074604E0FFF78FFEC01B4045C7D8D4
:1038B000336A9807F7D4002D3FF459AF434AD369D0
:1038C00023F08053D36152E7414A404E1360FFF723
:1038D0007BFE054604E0FFF777FE401B0228AFD8C9
:1038E00033689907F7D42368F1E6384A136A43F03E
:1038F00001031362FFF768FE41F288380646334F32
:1039000004E0FFF761FE801B404599D83B6A9B07A6
:10391000F7D5002D3FF42BAFD0E7012B3FF451AF8B
:103920006B68226A03F4803191427FF44AAF606A87
:1039300003F47013181A18BF012034E703F1804311
:10394000A3F53C331A6842F480221A601A6842F4E4
:1039500080321A6081E642F004021A621A6A42F06A
:1039600001021A62C6E7FFF72FFE064605E0FFF7E1
:103970002BFE801B02283FF663AF2B689901F6D41B
:10398000236AB3F5803F05D16A68A16822F400324A
:103990000A436A6001200D4D616A6A680B4322F494
:1039A00074120B4913436B600866FFF70DFE044663
:1039B00005E0FFF709FE001B02283FF641AF2B6828
:1039C0009A01F6D5EEE60120704700BF00100240D4
:1039D00000004242002800F0B1805E4A2DE9F0412B
:1039E0001368044603F007038B420D4686B00DD2E0
:1039F000136823F007030B431360136803F00703F6
:103A00008B4203D0012006B0BDE8F08123689E07F9
:103A100014D5580704D550494A6842F4E0624A6018
:103A2000190704D54C494A6842F460524A604A4931
:103A3000A0684A6822F0F00202434A60DA0720D503
:103A40006268454B012A1B687AD0022A73D09E0710
:103A5000D8D5414E41F28838736823F003031343ED
:103A60007360FFF7B1FD074604E0FFF7ADFDC01B33
:103A7000404568D87368626803F00C03B3EB820FAB
:103A8000F3D1344A136803F00703AB4209D9136832
:103A900023F007032B431360136803F00703AB42C3
:103AA000B0D12368580706D52B49E0684A6822F44C
:103AB000E06202434A60190707D5274A2169536823
:103AC00023F4605343EAC103536040F20124234BC3
:103AD00006AD0FCB05E90F001F49ADF804404A6859
:103AE00002F00C03082B11D01D4B1B4A1D485268D5
:103AF0001D49C2F30312805C1C4AC340086813606E
:103B0000FFF720FD002006B0BDE8F081C2F383433B
:103B100018336B44D20313F8103C16D54A68104989
:103B2000C2F3404201FB03F318326A4412F8142C2A
:103B3000B3FBF2F3D9E79F018BD463E70120704711
:103B40009B0386D45EE703205DE7094A02FB03F38B
:103B5000CBE700BF00200240001002401C600008BC
:103B600000127A003860000864000020680000201D
:103B700000093D000122014BDA6470470000424217
:103B8000044B054A5B680549C3F30223CB5C10680C
:103B9000D8407047001002406800002030600008E4
:103BA000044B054A5B680549C3F3C223CB5C10682C
:103BB000D8407047001002406800002030600008C4
:103BC000704700BF10B5054CA3681B0600D410BD9C
:103BD000FFF7F6FF8023A37210BD00BF0010024064
:103BE0002DE9F04103680446D80782B02CD53A4B42
:103BF000DA69D1003FD5394D00262B68DA0548D562
:103C0000354D2B6A13F4407311D0616801F4407292
:103C10009A420DD0002001272B6A314A23F44071CB
:103C2000C2F84074C2F84004D807296244D46168DD
:103C3000294A136A23F440730B4313621EB1D369FC
:103C400023F08053D36123689A0706D52249A068E0
:103C50004A6822F4404202434A60DB0603D4002053
:103C600002B0BDE8F0811C4AE168536823F4800388
:103C70000B435360F3E7DA69184D42F08052DA6182
:103C8000DB69012603F080530193019B2B68DA0561
:103C9000B6D42B6843F480732B60FFF795FC07467E
:103CA0002B68DB05ACD4FFF78FFCC31B642BF7D963
:103CB000032002B0BDE8F081FFF786FC41F28838AE
:103CC000074604E0FFF780FCC01B4045F0D82B6A94
:103CD0009907F7D5ABE700BF001002400070004025
:103CE00000004242844600B5364B87B00DF1180EF5
:103CF0000FCB0EE90F00604640F201230228ADF819
:103D0000043007D010282AD0012810D0002007B096
:103D10005DF804FBFFF744FF2B4B5B68C3F3813373
:103D200001335B00B0FBF3F007B05DF804FB40F239
:103D3000023225490B6A1A40B2F5817F33D003F471
:103D40004073B3F5007F31D0B3F5407FDED14FF241
:103D50002443086810F4003018BF1846D7E71A4B00
:103D60005A68186810F08070D1D0C2F383411831BE
:103D70006944D20311F8100C20D55B68134AC3F3D1
:103D8000404318336B4413F8143CB2FBF3F303FBCA
:103D900000F00D4B5B685B02B9D40D4B4000A3FBF8
:103DA00000304008B3E74FF40040B0E749F6404325
:103DB000486A10F0020018BF1846A8E7054B03FB3D
:103DC00000F0E6E71C6000080010024000127A00D4
:103DD000ABAAAAAA00093D002DE9F04F0D6883B0F7
:103DE000002D00F0C3800022804E92461346DFF87B
:103DF0000082804F06E0013335FA03F402F1040239
:103E000000F0B48001249C4034EA050E04EA050C5D
:103E1000F1D14D68122D00F2AC80122D1AD8DFE8D6
:103E200005F0B3C5C1CC191919191919191919199E
:103E3000191919BDC800DFF8C0E1754500F0A4806C
:103E40000EF5702E754500F09F80AEF5801E75450D
:103E500000F09A80BCF1FF0F9CBF864693464FF05E
:103E60000F0584BF00F1040EA2F1200BDEF8004024
:103E70000AFA0BF905FA0BFB24EA0B0444EA0904DD
:103E8000CEF800404C6814F0805F00F08580D6F8D2
:103E900018E003F003094EF0010EC6F818E0D6F85A
:103EA00018E04FEA89090EF0010ECDF804E0DDF8C4
:103EB00004E023F0030E0EF1804E0EF5803EDEF896
:103EC00008B005FA09F52BEA0505DFF830B15845C9
:103ED00013D00BF5806B584579D0DFF824B15845E5
:103EE0006ED0DFF820B158450CBF4FF0030B4FF0F8
:103EF000040B0BFA09F945EA0905CEF80850DFF87A
:103F000008E114F4803FDEF8005014BF45EA0C05C8
:103F100025EA0C05CEF80050DFF8ECE014F4003F81
:103F2000DEF8045014BF45EA0C0525EA0C05CEF86E
:103F30000450DFF8D4E014F4801FDEF8085014BFFA
:103F400045EA0C0525EA0C05CEF808502E4D14F470
:103F5000001FEC681DD044EA0C04EC600D680133CE
:103F600035FA03F402F104027FF44CAF03B0BDE86C
:103F7000F08F454508D07FF65EAFBD4204D0DFF834
:103F80008CE075457FF466AF8D683DBB4FF0040A49
:103F900060E724EA0C04EC600D682CE7CC6804F1BF
:103FA000040A57E7CC6804F1080A53E7D1F80CA0DB
:103FB00050E7CC6804F10C0A4CE74FF0000A49E7DF
:103FC0004FF0020B0BFA09F945EA090595E74FF0A6
:103FD000010B0BFA09F945EA09058EE7012D4FF0AF
:103FE000080A0CBF0461446134E700BF00100240BE
:103FF00000002210000031100000121000080140E3
:104000000010014000140140000401400000321083
:104010008368194214BF01200020704702B90904C7
:1040200001617047C36801EA030221EA030141EA22
:1040300002410161704700BF044A5169014200D149
:10404000704708B55061FDF73FF908BD0004014015
:1040500040B3034605C84FF4807C30B4002499680F
:10406000DD680A4310492A43104D0144A5FB015164
:1040700009098900196419699D690A4359690A4344
:1040800001682A43DD6921F47F5121F030012A4380
:104090000A430749D9630260A3F820C020469C6305
:1040A00030BC704701207047F8FFFDBFCDCCCCCCB1
:1040B0000000024070B490F82040012C09D0012487
:1040C00090F821C080F82040A44505D0002380F856
:1040D0002030022070BC7047022480F82140002468
:1040E00084630468056C26680CFA05F526F0010661
:1040F0002660C66B756063604368102BC36A0BBF94
:10410000A260A160E160E26053B1236843F00E0356
:1041100023602368002043F00103236070BC7047D4
:10412000236823F004032360236843F00A03236019
:10413000EFE700BF90F821200346022A06D00422B0
:104140009A630022012083F8202070474FF0010C71
:104150001A680020116821F00E011160116821F029
:1041600001011160D3E90F120CFA02F24A60002239
:1041700083F821C083F82020704700BF90F82120E9
:104180000346022A03D0042201209A637047026882
:1041900010B511681A4821F00E01116011688242B1
:1041A00021F0010111601FD016498A421AD0143142
:1041B0008A421BD014318A421BD014318A421BD050
:1041C00014318A4214BF4FF080724FF480124FF4C2
:1041D00080700D4C596B6260188409B1184688478D
:1041E000002010BD1022F2E70122F0E74FF48072A8
:1041F000EDE74FF48052EAE74FF48032E7E700BF83
:10420000080002401C00024000000240042270B47A
:10421000C66B016C346803688A4022421D681FD057
:104220006A071DD51A68910603D41A6822F00402A1
:104230001A603E4A93425AD0143293425FD01432ED
:10424000934266D01432934269D0143293425BD0C9
:104250001432934214BF4FF080624FF4800247E063
:1042600002228A40224222D0AA0720D51A6891064B
:1042700006D401211A6822F00A021A6080F821107F
:104280002A4A934229D01432934240D014329342A6
:1042900042D01432934234D01432934242D014327A
:1042A000934214BF4FF000724FF4001216E0082240
:1042B0008A40224219D02A0717D51A684FF4807411
:1042C00022F00E021A600123026B03FA01F1716001
:1042D000836304844AB170BC104702220021144C4D
:1042E000836A626080F820103BB970BC704704227A
:1042F0000F49C36A4A60002BF7D070BC18474022B0
:10430000F6E74FF40052E9E74FF48022F0E720226D
:10431000E4E74FF48062EBE74FF40072DEE74FF41E
:104320008042E5E74FF40032D8E700BF08000240C2
:10433000000002404FF6FF0C06490302CA6803F46E
:10434000E06302EA0C02134343F0BF6343F400331B
:10435000CB60704700ED00E01C4B00B5DB68C3F399
:104360000223C3F1070EBEF1040F03F1040C28BFB2
:104370004FF0040EBCF1060F1BD94FF0FF3C033B7E
:104380000CFA03FC22EA0C024FF0FF3C0CFA0EFC84
:1043900021EA0C019940002841EA02010CDB0901E5
:1043A00000F16040C9B200F5614080F800135DF88B
:1043B00004FB00221346E7E7054B00F00F0009015C
:1043C000C9B2034419765DF804FB00BF00ED00E0BC
:1043D000FCEC00E0002807DB012300F01F01034A8A
:1043E00040098B4042F82030704700BF00E100E0F8
:1043F0000138B0F1807F01D3012070474FF0E023F6
:104400004FF0F00C0022072110B4044C586184F8DE
:1044100023C010469A6110BC1961704700ED00E09E
:1044200020B338B504464CF6CC45D4E9003145F20A
:104430005550A2681D60186059609A60FFF7C4F873
:1044400023680546DA6890070BD0FFF7BDF8401BDC
:104450002728236802D9DA68910709D1DA68920718
:10446000F3D14AF6AA2200201A6038BD0120704715
:10447000032038BD03464AF6AA221B6800201A60B2
:10448000704700BF002866D010B590F83D30044654
:1044900003F0FF02002B45D0022322682F4984F845
:1044A0003D308A42136842D0B2F1804F11D0A1F55D
:1044B00094318A420DD001F580618A4209D0A06909
:1044C00023F080030343E16813606368D162936261
:1044D00010E0A16823F0700320690B4323F44073BC
:1044E000A169034323F08003E0680B436168136014
:1044F000D06291620123536184F8463084F83E30E3
:1045000084F83F3084F8403084F8413084F84230F9
:1045100084F8433084F8443084F8453084F83D30E2
:10452000002010BD80F83C20FDF760F9B4E7A068DA
:1045300023F070032169034323F440730B43A16903
:1045400023F080030B431360E368D36263689362D4
:1045500063691363CEE70120704700BF002C014060
:1045600090F83D30012B1FD10222036880F83D20D6
:10457000DA680E4942F001028B42DA6009D0B3F1E9
:10458000804F06D00A4A934203D002F580629342DC
:1045900004D19A6802F00702062A03D01A6842F092
:1045A00001021A600020704701207047002C014072
:1045B00000040040002866D010B590F83D30044655
:1045C00003F0FF02002B45D0022322682F4984F814
:1045D0003D308A42136842D0B2F1804F11D0A1F52C
:1045E00094318A420DD001F580618A4209D0A069D8
:1045F00023F080030343E16813606368D162936230
:1046000010E0A16823F0700320690B4323F440738A
:10461000A169034323F08003E0680B4361681360E2
:10462000D06291620123536184F8463084F83E30B1
:1046300084F83F3084F8403084F8413084F84230C8
:1046400084F8433084F8443084F8453084F83D30B1
:10465000002010BD80F83C20FDF738F9B4E7A068D1
:1046600023F070032169034323F440730B43A169D2
:1046700023F080030B431360E368D36263689362A3
:1046800063691363CEE70120704700BF002C01402F
:1046900039BB90F83E30012B2FD1022380F83E30F9
:1046A0000122036801F01F01186A8A4020EA020013
:1046B00010B41862196A204C0A43A3421A621ED031
:1046C000B3F1804F1FD01D4A93421CD002F5806287
:1046D000934218D01A68002042F0010210BC1A6000
:1046E0007047042917D008291DD090F84130012BBC
:1046F00003D1022380F84130D2E7012070475A6C81
:1047000042F400425A649A6802F00702062AE1D194
:10471000002010BC704790F83F30012BEDD10223F0
:1047200080F83F30BCE790F84030012BE5D1022300
:1047300080F84030B4E700BF002C01400004004086
:10474000002800F08680F8B590F83D3004460D460C
:1047500003F0FF02002B63D00222236884F83D207F
:104760009A683D4922F4804222F007029A608B4207
:104770001A685AD0B3F1804F49D0A1F594318B42D9
:1047800045D001F580618B4241D0A16922F08002C1
:104790000A43E1681A60D96262689A620126AA69CE
:1047A000A968E86941EA02212A69120142EA002265
:1047B000E8685E61024398689F6927F4407C1F6A3D
:1047C0002CF0030C41EA0C0127F0220C2F6A21F493
:1047D0007C4121F0FC0142EA07320A436F696968B3
:1047E0002D6841EA0711284341EA0C0198609A615B
:1047F000196284F8466084F83E6084F83F6084F86B
:10480000426084F8436084F83D600020F8BDA168F0
:1048100022F070020A43216922F440720A43B4E78D
:1048200080F83C20FDF702F896E7A16822F07002BC
:104830000A43216922F440720A43A16922F08002EE
:104840000A431A60E268DA6262689A6262691A630D
:10485000A4E70120704700BF002C0140034600B5CB
:1048600090F83E0093F83F2093F842C0C0B293F80E
:1048700043E05FFA8CFCE1B9012802D001205DF829
:1048800004FBBCF1010FFAD102211A6883F83E1033
:1048900083F84210136A23F001031362136A43F092
:1048A000010313621368002043F0010313605DF8F5
:1048B00004FB0429D2B25FFA8EFE1CD00128DDD1A0
:1048C000012ADCD1BCF1010FD9D1BEF1010FD6D143
:1048D00002211A6883F83E1083F83F1083F84210D3
:1048E00083F84310136A23F001031362136A43F041
:1048F000010313620AE0012AC0D1BEF1010FBDD14C
:1049000002211A6883F83F1083F84310136A23F0DA
:1049100010031362136A43F010031362C2E700BF6F
:10492000034690F83C00012800F0C0800120F0B45C
:1049300083F83C000C2A2DD8DFE802F0072C2C2C41
:10494000602C2C2C8D2C2C2C32001A680E68106ACE
:1049500020F001001062106A5568946920F002008E
:1049600024F0730434438E6830436A4EB24200F040
:104970009F8055604D6894610C6955631062916920
:1049800041F008019161916921F0040191619169FF
:1049900021439161002283F83C201046F0BC70470F
:1049A0001A680E68106A20F480501062106A556808
:1049B000D46920F4005024F4E64444EA06248E68C6
:1049C00040EA0630534EB24200F08E8055604D688A
:1049D000D4610C6915641062D16941F40061D16140
:1049E000D16921F48061D161D16941EA0421D161A9
:1049F000002283F83C201046F0BC70471A680E680D
:104A0000106A20F010001062106A5568946920F056
:104A1000200024F4E64444EA06248E6840EA0610A6
:104A20003C4EB24251D055604D6894610C6995631B
:104A30001062916941F400619161916921F4806192
:104A40009161916941EA04219161002283F83C203F
:104A50001046F0BC70471A680E68106A20F4807027
:104A60001062106A5568D46920F4007024F0730451
:104A700034438E6840EA0620264EB2423AD0556052
:104A80004D68D4610C69D5631062D16941F00801A9
:104A9000D161D16921F00401D161D1692143D16192
:104AA000002283F83C201046F0BC7047022070477B
:104AB000CE6820F00800304325F44075D1E9056741
:104AC0003E4320F00400354353E7CE6820F08000D9
:104AD00040EA061025F44065D1E905673E4320F021
:104AE000400045EA86059EE74E6925F4804545EA83
:104AF00086156BE7CE6820F4006040EA062025F4B6
:104B00004055D1E905673E4320F4806045EA06152B
:104B1000B5E700BF002C014090F83C20012A75D079
:104B200030B4034601240222006883F83C4083F835
:104B30003D2084680A6824F47F4424F07704602AC6
:104B4000846065D031D8402A48D021D9502A16D166
:104B50004A68CC68016A21F00A011143026A22F016
:104B600001020262826922F0F00242EA04128261CA
:104B70000162826822F0700242F0570282600022D5
:104B8000012183F83C2083F83D10104630BC70476B
:104B9000202A02D01ED9302AF1D1816821F070017B
:104BA0000A4342F007028260E9E7702A49D0B2F571
:104BB000005FE4D1D1E9015284682A43CD6824F42E
:104BC0007F4142EA05220A438260826842F48042C1
:104BD0008260D4E732F01001D1D1DEE74A68CC68B8
:104BE000016A21F00A011143026A22F00102026205
:104BF000826922F0F00242EA041282610162826854
:104C000022F0700242F047028260B8E7022070474B
:104C1000026A4C6822F01002CD6802628169026A61
:104C200021F4704122F0A00242EA041241EA053167
:104C300081610262826822F0700242F06702826043
:104C40009DE7D1E9015284682A43CD6824F47F416D
:104C500042EA05220A438260826842F0770282605B
:104C60008DE700BF704700BF704700BF704700BFAF
:104C7000704700BF036810B51A690446910702D552
:104C8000DA6892075FD41A69500702D5DA685107CB
:104C900046D41A69120702D5DA6810072ED41A69A9
:104CA000D20602D5DA68D00618D41A69D10702D51F
:104CB000DA68D2075DD41A69100602D5DA681106DF
:104CC0005FD41A69520602D5DA68500661D41A69AF
:104CD000910602D5DA68920643D410BD6FF0100138
:104CE000082219612277DB69204613F4407F64D0E3
:104CF000FFF7BAFF002223682277D6E76FF008019A
:104D0000042219612277DB692046990752D1FFF707
:104D1000A9FF2046FFF7AAFF002223682277BEE7FB
:104D20006FF004010222196122779B69204613F477
:104D3000407F3CD1FFF796FF2046FFF797FF002208
:104D400023682277A5E76FF002010122196102773B
:104D50009B699B0725D0FFF787FF002223682277F6
:104D600091E76FF020022046BDE810401A6100F084
:104D70005DB86FF0010220461A61FCF75BFA236808
:104D800099E76FF0800220461A6100F051F823681D
:104D900097E76FF0400220461A61FFF769FF23682A
:104DA00095E7FFF75FFF2046FFF760FFD5E7FFF7C6
:104DB0005BFFC4E7FFF758FFAEE7FFF753FF20465E
:104DC000FFF754FF96E700BF90F83C20012A27D058
:104DD000034602201A6830B483F83D0050680C681E
:104DE000104D20F070002043AA429468506009D012
:104DF000B2F1804F06D00C48824203D000F58060AB
:104E0000824204D1496824F080040C43946000225B
:104E1000012183F83C2083F83D10104630BC7047D8
:104E200002207047002C014000040040704700BF82
:104E3000704700BF002864D070B590F83D3004463C
:104E400003F0FF02002B54D0D4E90226242123686A
:104E500084F83D10D968206921F40051A569024306
:104E60006069D9601969024321F4405131431961E5
:104E7000D968254821F4B05121F00C010A43DA60C9
:104E80005A69834222F4407242EA05025A6135D0DF
:104E9000FEF776FE626800EB8003920003EB83036B
:104EA000B3FBF2F34FF0640E00254FF0200C1748CF
:104EB0002168A0FB036252090EFB12331B0132333F
:104EC000A0FB0303120102EB53128A600B69284610
:104ED00023F490430B614B6923F02A034B61CB68A9
:104EE00043F40053CB60256484F83DC084F83EC091
:104EF00070BD80F83C20FCF71BFDA5E7FEF750FED7
:104F0000C8E70120704700BF003801401F85EB5102
:104F1000F8B5044690F83D0020282DD151B34AB38E
:104F200094F83C00012827D000254FF0010E4FF0E7
:104F3000210C606B114F124EE284A2842564216221
:104F400084F83CE084F83DC013462268C0E90A7644
:104F50000C4E043245630663FFF7ACF86FF0400275
:104F6000236828461A6084F83C505A6942F080024F
:104F70005A61F8BD0120F8BD0220F8BD2D5000088F
:104F80005D5000087150000890F83E30202B3FD152
:104F900000293BD0002A39D0F0B590F83C300446C7
:104FA000012B83B036D000254FF0010E4FF0220CBC
:104FB00081628285194F806B194E256384F83CE02D
:104FC0002564134684F83EC00A462168C0E90A7683
:104FD000144E043145630663FFF76CF828462368D6
:104FE00001951A6801925A6884F83C500192019A1E
:104FF000DA6842F48072DA605A6942F001025A615A
:105000005A6942F040025A6103B0F0BD0120704776
:1050100002207047022003B0F0BD00BF1D51000800
:105020000151000871500008704700BF08B50368BF
:10503000406A1B6813F020030AD10268C3845369D5
:1050400023F080035361D36843F04003D36008BD6D
:10505000FFF7EAFF08BD00BF704700BF08B5406A10
:10506000FFF7FAFF08BD00BF704700BF704700BFE1
:1050700008B5406A0368596990F83D20212A0BD091
:10508000596990F83E20222A16D0036C43F0100391
:105090000364FFF7EBFF08BD0906F1D500222021CC
:1050A000C284DA6822F0C002DA6080F83D105969E3
:1050B00090F83E20222AE8D14A06E6D50022C28591
:1050C000DA6822F49072DA605A6922F001025A61B9
:1050D000026B012A03D1DA6822F01002DA60202282
:1050E000002380F83E200363CFE700BF08B500230C
:1050F000406AC385C384FFF7B9FF08BD704700BF8E
:10510000406A08B5036B012B02D0FFF7ADFF08BD65
:10511000818D4908FFF7F2FF08BD00BF08B503689D
:10512000406A1B6813F0200313D120210268C38555
:10513000D36823F48073D360536923F00103536170
:10514000536923F04003536180F83E10036B012B39
:1051500009D0036B012B02D0FCF77AF808BD818DD2
:10516000FFF7CCFF08BDD36823F01003D360F0E74E
:105170008368B3F5805F3BD0826A002B30D0036830
:105180005B6803F07F031370826A0132C38D826211
:10519000013B9BB2C38553BB4FF0200C026800B5A6
:1051A000D16883B021F02001D160D16821F48071F1
:1051B000D160516921F00101516180F83EC0016B5D
:1051C00001291FD10363D16821F01001D16011685A
:1051D000C90621D4818DFFF791FF03B05DF804FB70
:1051E0000369002BCBD103685B681370CCE7704771
:1051F000036963B90368826A5B68C3F3080322F832
:10520000023BC3E7FCF724F803B05DF804FB036836
:10521000826A5B681370B7E7019313680193536860
:105220000193019BD6E700BF30B5036804461A68B6
:1052300083B012F00F0FDD6859694CD1910601D58A
:10524000A9067DD4216B01290AD0100601D52906B3
:105250007FD4520602D5680600F1998003B030BDB4
:10526000D006F2D5E906F0D5002101911A68019225
:105270005A680192019A5A6912F0400200F0F080D7
:10528000A06B0268526892B2002AE7D0A58D9542C1
:10529000E4D9E2858269202A16D0DA6822F4807285
:1052A000DA605A6922F001025A615A6922F040021A
:1052B0005A61202284F83E202163DA6822F010022D
:1052C000DA60FEF737FFA58DE38D2046E91A89B233
:1052D000FFF714FFC2E711F0010176D115F4907FBA
:1052E000B0D0D0070AD5E80540F1B680206C40F078
:1052F00001002064500759D500296AD190076ED566
:10530000100700F1A680216C0029A7D0910609D5CD
:10531000AA0607D594F83E20222A03D12046FFF79B
:1053200027FF23685A69216C02F0400201F008014E
:1053300052EA01055AD12046FFF798FE25648DE711
:1053400090F83E30222B89D103B0BDE83040FFF702
:105350000FBF94F83D20212A80D1A268B2F5805F6A
:1053600000F09F80226A511C216212785A60E28C00
:10537000013A92B2E284002A7FF470AFDA6822F038
:105380008002DA60DA6842F04002DA6066E72021E3
:10539000DA68204622F04002DA6084F83D10FFF718
:1053A00043FE5BE7E805A1D4500712D4900716D559
:1053B0000029A5D0216C41F0040121641107A2D578
:1053C000216C41F0080121649DE7D007EAD4500721
:1053D0003AD5206C40F0020020649007EAD4100710
:1053E00091D505F0200008438DD0E9E7DA6822F472
:1053F0009072DA605A6922F001025A61226B012A26
:1054000003D1DA6822F01002DA600022202184F849
:105410003E1022635A69550612D55A69A06B22F0D4
:1054200040025A6160B1254B4363FEF7A7FE002896
:105430003FF414AFA06B436B03B0BDE83040184796
:105440002046FFF713FE09E79107B3D41107B7D43D
:1054500059E7A906B4D456E750073FF54FAFA5E783
:10546000E58DE18DA08D89B2ADB200293FF4F6AE95
:10547000411B89B200293FF4F1AE2025D86820F401
:105480009070D860586920F00100586184F83E504F
:105490002263DA68204622F01002DA60FFF72EFE5F
:1054A000DCE62269002A7FF45DAF226A32F8021B33
:1054B000C1F308015960226259E700BFED500008AE
:1054C000704700BF0C480D490D4A002302E0D45834
:1054D000C4500433C4188C42F9D30A4A0A4C00233E
:1054E00001E013600432A242FBD3FFF7E9FF00F0B2
:1054F0000FF8FBF70DFB7047000000206C00002048
:10550000506000087000002040070020FEE7000007
:1055100070B500260C4D0D4C641BA410A64209D199
:1055200000F022F800260A4D0A4C641BA410A64283
:1055300005D170BD55F8043B98470136EEE755F8A4
:10554000043B98470136F2E74860000848600008CD
:10555000486000084C60000803460244934200D1B2
:10556000704703F8011BF9E7F8B500BFF8BC08BCA9
:105570009E467047F8B500BFF8BC08BC9E46704711
:105580004C5400002D0000002B0000004C56000081
:105590005254000052560000564F4C5441474500AB
:1055A0002E000000560000004D6F746F7200000066
:1055B0004F2D4E004F464600000000000000000046
:1055C00000000000000000000000000000001FCCF0
:1055D000000C000000000000000008003000600027
:1055E0000800300060000000022003FC1E200220A2
:1055F00003FC1E200220000000000E1811043FFFD3
:1056000010840C78000000000F0010840F3800C0D8
:10561000077818840078000000780F8410C41124E3
:105620000E9800E400840008080068007000000084
:10563000000000000000000000000000000007E083
:10564000181820044002000000004002200418182E
:1056500007E00000000000000240024001800FF05F
:1056600001800240024000000080008000800FF8AE
:1056700000800080008000000001000D000E00008E
:10568000000000000000000000000080008000809A
:1056900000800080008000800000000C000C0000F2
:1056A000000000000000000000000006001800607C
:1056B0000180060018002000000007F00808100410
:1056C0001004080807F000000000080408041FFC8C
:1056D000000400040000000000000E0C1014102450
:1056E000104411840E0C000000000C18100411046A
:1056F000110412880C700000000000E00320042454
:1057000008241FFC0024000000001F9810841104CE
:105710001104108810700000000007F008881104C0
:10572000110418880070000000001C00100010FC1C
:1057300013001C001000000000000E3811441084FB
:10574000108411440E38000000000700088C10443B
:105750001044088807F00000000000000000030C5F
:10576000030C000000000000000000000001010622
:105770000000000000000000000000800140022046
:105780000410080810040000022002200220022059
:10579000022002200220000000001004080804106B
:1057A000022001400080000000000E001200100CDA
:1057B000106C10800F00000003E00C1813E4142498
:1057C00017C4082807D000000004003C03C41C4094
:1057D000074000E4001C000410041FFC1104110425
:1057E00011040E880070000003E00C18100410046F
:1057F000100410081C10000010041FFC10041004FA
:105800001004080807F0000010041FFC1104110424
:1058100017C410040818000010041FFC1104110024
:1058200017C010000800000003E00C18100410045A
:1058300010441C780040000010041FFC10840080FD
:10584000008010841FFC10040000100410041FFCD2
:1058500010041004000000000003000110011001FA
:105860001FFE10001000000010041FFC1104038034
:105870001464181C1004000010041FFC1004000421
:1058800000040004000C000010041FFC1F0000FCBA
:105890001F001FFC1004000010041FFC0C04030078
:1058A00000E010181FFC100007F008081004100496
:1058B0001004080807F0000010041FFC108410807A
:1058C000108010800F00000007F00818102410242A
:1058D000101C080A07F2000010041FFC110411003C
:1058E00011C011300E0C000400000E1C11041084B5
:1058F000108410441C3800001800100010041FFC15
:10590000100410001800000010001FF8100400041C
:10591000000410041FF8100010001E0011E0001C0D
:10592000007013801C0010001FC0103C00E01F001E
:1059300000E0103C1FC000001004180C163401C019
:1059400001C01634180C100410001C00130400FCD5
:1059500013041C00100000000804101C10641084C4
:1059600013041C04101800000000000000007FFE5B
:105970004002400240020000000030000C000380A2
:105980000060001C000300000000400240024002D2
:105990007FFE00000000000000000000200040002A
:1059A0004000400020000000000100010001000153
:1059B0000001000100010001000040004000200043
:1059C00000000000000000000000009801240144D5
:1059D0000144014400FC000410001FFC0088010485
:1059E00001040088007000000000007000880104BD
:1059F0000104010400880000000000700088010418
:105A0000010411081FFC0004000000F801440144D7
:105A10000144014400C800000000010401040FFC1F
:105A20001104110411001800000000D601290129F9
:105A3000012901C90106000010041FFC00840100B7
:105A40000100010400FC000400000104190419FC19
:105A50000004000400000000000000030001010138
:105A6000190119FE0000000010041FFC0024004072
:105A700001B4010C010400000000100410041FFC1C
:105A80000004000400000000010401FC0104010006
:105A900001FC0104010000FC010401FC0084010080
:105AA0000100010400FC0004000000F801040104EE
:105AB0000104010400F80000010101FF0085010458
:105AC00001040088007000000000007000880104DC
:105AD0000104010501FF00010104010401FC00842F
